{
  "_format": "hh3-artifact-1",
  "contractName": "Upload",
  "sourceName": "contracts/Upload.sol",
  "abi": [
    {
      "inputs": [
        {
          "internalType": "address",
          "name": "_user",
          "type": "address"
        },
        {
          "internalType": "string",
          "name": "url",
          "type": "string"
        }
      ],
      "name": "add",
      "outputs": [],
      "stateMutability": "nonpayable",
      "type": "function"
    },
    {
      "inputs": [
        {
          "internalType": "address",
          "name": "user",
          "type": "address"
        }
      ],
      "name": "allow",
      "outputs": [],
      "stateMutability": "nonpayable",
      "type": "function"
    },
    {
      "inputs": [
        {
          "internalType": "address",
          "name": "user",
          "type": "address"
        }
      ],
      "name": "disallow",
      "outputs": [],
      "stateMutability": "nonpayable",
      "type": "function"
    },
    {
      "inputs": [
        {
          "internalType": "address",
          "name": "_user",
          "type": "address"
        }
      ],
      "name": "display",
      "outputs": [
        {
          "internalType": "string[]",
          "name": "",
          "type": "string[]"
        }
      ],
      "stateMutability": "view",
      "type": "function"
    },
    {
      "inputs": [],
      "name": "shareAccess",
      "outputs": [
        {
          "components": [
            {
              "internalType": "address",
              "name": "user",
              "type": "address"
            },
            {
              "internalType": "bool",
              "name": "access",
              "type": "bool"
            }
          ],
          "internalType": "struct Upload.Access[]",
          "name": "",
          "type": "tuple[]"
        }
      ],
      "stateMutability": "view",
      "type": "function"
    }
  ],
  "bytecode": "0x6080604052348015600e575f5ffd5b506108cf8061001c5f395ff3fe608060405234801561000f575f5ffd5b5060043610610055575f3560e01c806336d6da5514610059578063a9ed9cb81461006e578063bc8bef8114610081578063eb39113f1461009f578063ff9913e8146100bf575b5f5ffd5b61006c610067366004610586565b6100d2565b005b61006c61007c36600461064a565b610106565b6100896101dd565b604051610096919061066a565b60405180910390f35b6100b26100ad36600461064a565b61025e565b60405161009691906106c3565b61006c6100cd36600461064a565b6103da565b6001600160a01b0382165f908152602081815260408220805460018101825590835291200161010182826107ca565b505050565b335f9081526001602090815260408083206001600160a01b03851684529091528120805460ff191690555b335f908152600260205260409020548110156101d957335f90815260026020526040902080546001600160a01b03841691908390811061017357610173610885565b5f918252602090912001546001600160a01b0316036101d157335f9081526002602052604081208054839081106101ac576101ac610885565b5f9182526020909120018054911515600160a01b0260ff60a01b199092169190911790555b600101610131565b5050565b335f908152600260209081526040808320805482518185028101850190935280835260609492939192909184015b82821015610255575f84815260209081902060408051808201909152908401546001600160a01b0381168252600160a01b900460ff1615158183015282526001909201910161020b565b50505050905090565b60606001600160a01b03821633148061029957506001600160a01b0382165f90815260016020908152604080832033845290915290205460ff165b6102f75760405162461bcd60e51b815260206004820152602560248201527f596f7520646f6e277420686176652061636365737320746f2074686573652066604482015264696c65732160d81b606482015260840160405180910390fd5b6001600160a01b0382165f9081526020818152604080832080548251818502810185019093528083529193909284015b828210156103cf578382905f5260205f2001805461034490610747565b80601f016020809104026020016040519081016040528092919081815260200182805461037090610747565b80156103bb5780601f10610392576101008083540402835291602001916103bb565b820191905f5260205f20905b81548152906001019060200180831161039e57829003601f168201915b505050505081526020019060010190610327565b505050509050919050565b335f8181526001602081815260408084206001600160a01b038716808652908352818520805460ff19169094179093559383526003815283832091835252205460ff16156104d0575f5b335f908152600260205260409020548110156101d957335f90815260026020526040902080546001600160a01b03841691908390811061046657610466610885565b5f918252602090912001546001600160a01b0316036104c857335f908152600260205260409020805460019190839081106104a3576104a3610885565b5f9182526020909120018054911515600160a01b0260ff60a01b199092169190911790555b600101610424565b335f818152600260209081526040808320815180830183526001600160a01b03878116808352600183870181815285548083018755958952878920945194909501805495511515600160a01b026001600160a81b03199096169490931693909317939093179055948452600383528184209084529091529020805460ff1916909117905550565b80356001600160a01b038116811461056d575f5ffd5b919050565b634e487b7160e01b5f52604160045260245ffd5b5f5f60408385031215610597575f5ffd5b6105a083610557565b9150602083013567ffffffffffffffff8111156105bb575f5ffd5b8301601f810185136105cb575f5ffd5b803567ffffffffffffffff8111156105e5576105e5610572565b604051601f8201601f19908116603f0116810167ffffffffffffffff8111828210171561061457610614610572565b60405281815282820160200187101561062b575f5ffd5b816020840160208301375f602083830101528093505050509250929050565b5f6020828403121561065a575f5ffd5b61066382610557565b9392505050565b602080825282518282018190525f918401906040840190835b818110156106b857835180516001600160a01b0316845260209081015115158185015290930192604090920191600101610683565b509095945050505050565b5f602082016020835280845180835260408501915060408160051b8601019250602086015f5b8281101561073b57603f19878603018452815180518087528060208301602089015e5f602082890101526020601f19601f830116880101965050506020820191506020840193506001810190506106e9565b50929695505050505050565b600181811c9082168061075b57607f821691505b60208210810361077957634e487b7160e01b5f52602260045260245ffd5b50919050565b601f82111561010157805f5260205f20601f840160051c810160208510156107a45750805b601f840160051c820191505b818110156107c3575f81556001016107b0565b5050505050565b815167ffffffffffffffff8111156107e4576107e4610572565b6107f8816107f28454610747565b8461077f565b6020601f82116001811461082a575f83156108135750848201515b5f19600385901b1c1916600184901b1784556107c3565b5f84815260208120601f198516915b828110156108595787850151825560209485019460019092019101610839565b508482101561087657868401515f19600387901b60f8161c191681555b50505050600190811b01905550565b634e487b7160e01b5f52603260045260245ffdfea2646970667358221220eccf425d0ba7edba5307f1135ee381c78476b019175818ba4145ffd234d4064464736f6c634300081c0033",
  "linkReferences": {},
  "deployedLinkReferences": {},
  "immutableReferences": {},
  "inputSourceName": "project/contracts/Upload.sol",
  "buildInfoId": "solc-0_8_28-6fe5eeb3355c0007c5998d45871b0ac5a45890e5"
}